{
  "_format": "hh-sol-artifact-1",
  "contractName": "EscrowFactory",
  "sourceName": "contracts/EscrowFactory.sol",
  "abi": [
    {
      "anonymous": false,
      "inputs": [
        {
          "indexed": true,
          "internalType": "address",
          "name": "escrow",
          "type": "address"
        },
        {
          "indexed": true,
          "internalType": "address",
          "name": "founder",
          "type": "address"
        },
        {
          "indexed": true,
          "internalType": "address",
          "name": "kol",
          "type": "address"
        },
        {
          "indexed": false,
          "internalType": "uint256",
          "name": "amount",
          "type": "uint256"
        },
        {
          "indexed": false,
          "internalType": "string",
          "name": "xHandle",
          "type": "string"
        },
        {
          "indexed": false,
          "internalType": "bytes32",
          "name": "nonce",
          "type": "bytes32"
        }
      ],
      "name": "DealCreated",
      "type": "event"
    },
    {
      "inputs": [
        {
          "internalType": "address",
          "name": "kol",
          "type": "address"
        },
        {
          "internalType": "string",
          "name": "xHandle",
          "type": "string"
        },
        {
          "internalType": "address",
          "name": "verifier",
          "type": "address"
        }
      ],
      "name": "createEscrow",
      "outputs": [
        {
          "internalType": "address",
          "name": "escrow",
          "type": "address"
        }
      ],
      "stateMutability": "payable",
      "type": "function"
    }
  ],
  "bytecode": "0x6080604052348015600f57600080fd5b506126008061001f6000396000f3fe60806040526004361061001e5760003560e01c8063a71f7d8a14610023575b600080fd5b61003d60048036038101906100389190610359565b610053565b60405161004a91906103dc565b60405180910390f35b6000803390506000341161009c576040517f08c379a000000000000000000000000000000000000000000000000000000000815260040161009390610454565b60405180910390fd5b600073ffffffffffffffffffffffffffffffffffffffff168673ffffffffffffffffffffffffffffffffffffffff160361010b576040517f08c379a0000000000000000000000000000000000000000000000000000000008152600401610102906104c0565b60405180910390fd5b600073ffffffffffffffffffffffffffffffffffffffff168373ffffffffffffffffffffffffffffffffffffffff160361017a576040517f08c379a000000000000000000000000000000000000000000000000000000000815260040161017190610552565b60405180910390fd5b60008187464260405160200161019394939291906105e5565b60405160208183030381529060405280519060200120905060003483898989868a6040516101c09061027f565b6101cf96959493929190610699565b6040518091039082f09050801580156101ec573d6000803e3d6000fd5b5090508093508773ffffffffffffffffffffffffffffffffffffffff168373ffffffffffffffffffffffffffffffffffffffff168573ffffffffffffffffffffffffffffffffffffffff167f2871af35141b7cc5f012d0a2afa63486fbdfa53bda478e7895868b6ab9fb81c9348b8b8860405161026c9493929190610704565b60405180910390a4505050949350505050565b611e868061074583390190565b600080fd5b600080fd5b600073ffffffffffffffffffffffffffffffffffffffff82169050919050565b60006102c182610296565b9050919050565b6102d1816102b6565b81146102dc57600080fd5b50565b6000813590506102ee816102c8565b92915050565b600080fd5b600080fd5b600080fd5b60008083601f840112610319576103186102f4565b5b8235905067ffffffffffffffff811115610336576103356102f9565b5b602083019150836001820283011115610352576103516102fe565b5b9250929050565b600080600080606085870312156103735761037261028c565b5b6000610381878288016102df565b945050602085013567ffffffffffffffff8111156103a2576103a1610291565b5b6103ae87828801610303565b935093505060406103c1878288016102df565b91505092959194509250565b6103d6816102b6565b82525050565b60006020820190506103f160008301846103cd565b92915050565b600082825260208201905092915050565b7f466163746f72793a20416d6f756e74206d757374206265203e20300000000000600082015250565b600061043e601b836103f7565b915061044982610408565b602082019050919050565b6000602082019050818103600083015261046d81610431565b9050919050565b7f466163746f72793a20496e76616c6964204b4f4c206164647265737300000000600082015250565b60006104aa601c836103f7565b91506104b582610474565b602082019050919050565b600060208201905081810360008301526104d98161049d565b9050919050565b7f466163746f72793a20496e76616c69642076657269666965722061646472657360008201527f7300000000000000000000000000000000000000000000000000000000000000602082015250565b600061053c6021836103f7565b9150610547826104e0565b604082019050919050565b6000602082019050818103600083015261056b8161052f565b9050919050565b60008160601b9050919050565b600061058a82610572565b9050919050565b600061059c8261057f565b9050919050565b6105b46105af826102b6565b610591565b82525050565b6000819050919050565b6000819050919050565b6105df6105da826105ba565b6105c4565b82525050565b60006105f182876105a3565b60148201915061060182866105a3565b60148201915061061182856105ce565b60208201915061062182846105ce565b60208201915081905095945050505050565b82818337600083830152505050565b6000601f19601f8301169050919050565b600061065f83856103f7565b935061066c838584610633565b61067583610642565b840190509392505050565b6000819050919050565b61069381610680565b82525050565b600060a0820190506106ae60008301896103cd565b6106bb60208301886103cd565b81810360408301526106ce818688610653565b90506106dd606083018561068a565b6106ea60808301846103cd565b979650505050505050565b6106fe816105ba565b82525050565b600060608201905061071960008301876106f5565b818103602083015261072c818587610653565b905061073b604083018461068a565b9594505050505056fe610140604052604051611e86380380611e868339818101604052810190610026919061038b565b60016000819055508473ffffffffffffffffffffffffffffffffffffffff1660808173ffffffffffffffffffffffffffffffffffffffff16815250508373ffffffffffffffffffffffffffffffffffffffff1660a08173ffffffffffffffffffffffffffffffffffffffff16815250503460c0818152505082600190816100ad9190610643565b508160e081815250508073ffffffffffffffffffffffffffffffffffffffff166101008173ffffffffffffffffffffffffffffffffffffffff16815250504267ffffffffffffffff166101208167ffffffffffffffff16815250506000600260006101000a81548160ff0219169083600381111561012e5761012d610715565b5b0217905550600060c05111610178576040517f08c379a000000000000000000000000000000000000000000000000000000000815260040161016f906107c7565b60405180910390fd5b50505050506107e7565b6000604051905090565b600080fd5b600080fd5b600073ffffffffffffffffffffffffffffffffffffffff82169050919050565b60006101c182610196565b9050919050565b6101d1816101b6565b81146101dc57600080fd5b50565b6000815190506101ee816101c8565b92915050565b600080fd5b600080fd5b6000601f19601f8301169050919050565b7f4e487b7100000000000000000000000000000000000000000000000000000000600052604160045260246000fd5b610247826101fe565b810181811067ffffffffffffffff821117156102665761026561020f565b5b80604052505050565b6000610279610182565b9050610285828261023e565b919050565b600067ffffffffffffffff8211156102a5576102a461020f565b5b6102ae826101fe565b9050602081019050919050565b60005b838110156102d95780820151818401526020810190506102be565b60008484015250505050565b60006102f86102f38461028a565b61026f565b905082815260208101848484011115610314576103136101f9565b5b61031f8482856102bb565b509392505050565b600082601f83011261033c5761033b6101f4565b5b815161034c8482602086016102e5565b91505092915050565b6000819050919050565b61036881610355565b811461037357600080fd5b50565b6000815190506103858161035f565b92915050565b600080600080600060a086880312156103a7576103a661018c565b5b60006103b5888289016101df565b95505060206103c6888289016101df565b945050604086015167ffffffffffffffff8111156103e7576103e6610191565b5b6103f388828901610327565b935050606061040488828901610376565b9250506080610415888289016101df565b9150509295509295909350565b600081519050919050565b7f4e487b7100000000000000000000000000000000000000000000000000000000600052602260045260246000fd5b6000600282049050600182168061047457607f821691505b6020821081036104875761048661042d565b5b50919050565b60008190508160005260206000209050919050565b60006020601f8301049050919050565b600082821b905092915050565b6000600883026104ef7fffffffffffffffffffffffffffffffffffffffffffffffffffffffffffffffff826104b2565b6104f986836104b2565b95508019841693508086168417925050509392505050565b6000819050919050565b6000819050919050565b600061054061053b61053684610511565b61051b565b610511565b9050919050565b6000819050919050565b61055a83610525565b61056e61056682610547565b8484546104bf565b825550505050565b600090565b610583610576565b61058e818484610551565b505050565b5b818110156105b2576105a760008261057b565b600181019050610594565b5050565b601f8211156105f7576105c88161048d565b6105d1846104a2565b810160208510156105e0578190505b6105f46105ec856104a2565b830182610593565b50505b505050565b600082821c905092915050565b600061061a600019846008026105fc565b1980831691505092915050565b60006106338383610609565b9150826002028217905092915050565b61064c82610422565b67ffffffffffffffff8111156106655761066461020f565b5b61066f825461045c565b61067a8282856105b6565b600060209050601f8311600181146106ad576000841561069b578287015190505b6106a58582610627565b86555061070d565b601f1984166106bb8661048d565b60005b828110156106e3578489015182556001820191506020850194506020810190506106be565b8683101561070057848901516106fc601f891682610609565b8355505b6001600288020188555050505b505050505050565b7f4e487b7100000000000000000000000000000000000000000000000000000000600052602160045260246000fd5b600082825260208201905092915050565b7f457363726f773a20416d6f756e74206d7573742062652067726561746572207460008201527f68616e207a65726f000000000000000000000000000000000000000000000000602082015250565b60006107b1602883610744565b91506107bc82610755565b604082019050919050565b600060208201905081810360008301526107e0816107a4565b9050919050565b60805160a05160c05160e05161010051610120516115bd6108c9600039600081816103480152818161036c015281816108b601528181610a1b0152610bda01526000818161027001528181610327015281816107af0152610ad301526000818161030601526109f70152600081816102e301528181610573015281816106f30152818161099a015281816109d30152610cbd015260008181610239015281816102c2015281816104800152818161053901526109790152600081816102a101528181610600015281816106b90152818161078b0152610c9c01526115bd6000f3fe608060405234801561001057600080fd5b50600436106100cf5760003560e01c806386d1a69f1161008c578063cf09e0d011610066578063cf09e0d0146101c1578063d286bb4f146101df578063f0bc9de9146101fd578063fe5f2e881461021b576100cf565b806386d1a69f1461017b578063aa8c217c14610185578063affed0e0146101a3576100cf565b80630dcba2d1146100d4578063200d2ed2146100f25780632b7ac3f314610110578063370158ea1461012e5780633ccfd60b146101535780634d853ee51461015d575b600080fd5b6100dc610237565b6040516100e99190610d8b565b60405180910390f35b6100fa61025b565b6040516101079190610e1d565b60405180910390f35b61011861026e565b6040516101259190610d8b565b60405180910390f35b610136610292565b60405161014a989796959493929190610f1d565b60405180910390f35b61015b61043b565b005b610165610789565b6040516101729190610d8b565b60405180910390f35b6101836107ad565b005b61018d6109d1565b60405161019a9190610fa2565b60405180910390f35b6101ab6109f5565b6040516101b89190610fbd565b60405180910390f35b6101c9610a19565b6040516101d69190610fd8565b60405180910390f35b6101e7610a3d565b6040516101f49190610ff3565b60405180910390f35b610205610acb565b6040516102129190610fd8565b60405180910390f35b61023560048036038101906102309190611084565b610ad1565b005b7f000000000000000000000000000000000000000000000000000000000000000081565b600260009054906101000a900460ff1681565b7f000000000000000000000000000000000000000000000000000000000000000081565b600080600060606000806000807f00000000000000000000000000000000000000000000000000000000000000007f00000000000000000000000000000000000000000000000000000000000000007f000000000000000000000000000000000000000000000000000000000000000060017f00000000000000000000000000000000000000000000000000000000000000007f00000000000000000000000000000000000000000000000000000000000000007f0000000000000000000000000000000000000000000000000000000000000000611c207f00000000000000000000000000000000000000000000000000000000000000006103959190611100565b8480546103a19061116b565b80601f01602080910402602001604051908101604052809291908181526020018280546103cd9061116b565b801561041a5780601f106103ef5761010080835404028352916020019161041a565b820191906000526020600020905b8154815290600101906020018083116103fd57829003601f168201915b50505050509450975097509750975097509750975097509091929394959697565b610443610cfa565b6001600381111561045757610456610da6565b5b600260009054906101000a900460ff16600381111561047957610478610da6565b5b036105c3577f000000000000000000000000000000000000000000000000000000000000000073ffffffffffffffffffffffffffffffffffffffff163373ffffffffffffffffffffffffffffffffffffffff161461050c576040517f08c379a00000000000000000000000000000000000000000000000000000000081526004016105039061120e565b60405180910390fd5b6003600260006101000a81548160ff0219169083600381111561053257610531610da6565b5b02179055507f000000000000000000000000000000000000000000000000000000000000000073ffffffffffffffffffffffffffffffffffffffff166108fc7f00000000000000000000000000000000000000000000000000000000000000009081150290604051600060405180830381858888f193505050501580156105bd573d6000803e3d6000fd5b5061077f565b600260038111156105d7576105d6610da6565b5b600260009054906101000a900460ff1660038111156105f9576105f8610da6565b5b03610743577f000000000000000000000000000000000000000000000000000000000000000073ffffffffffffffffffffffffffffffffffffffff163373ffffffffffffffffffffffffffffffffffffffff161461068c576040517f08c379a0000000000000000000000000000000000000000000000000000000008152600401610683906112a0565b60405180910390fd5b6003600260006101000a81548160ff021916908360038111156106b2576106b1610da6565b5b02179055507f000000000000000000000000000000000000000000000000000000000000000073ffffffffffffffffffffffffffffffffffffffff166108fc7f00000000000000000000000000000000000000000000000000000000000000009081150290604051600060405180830381858888f1935050505015801561073d573d6000803e3d6000fd5b5061077e565b6040517f08c379a000000000000000000000000000000000000000000000000000000000815260040161077590611332565b60405180910390fd5b5b610787610d40565b565b7f000000000000000000000000000000000000000000000000000000000000000081565b7f000000000000000000000000000000000000000000000000000000000000000073ffffffffffffffffffffffffffffffffffffffff163373ffffffffffffffffffffffffffffffffffffffff161461083b576040517f08c379a0000000000000000000000000000000000000000000000000000000008152600401610832906113c4565b60405180910390fd5b6000600381111561084f5761084e610da6565b5b600260009054906101000a900460ff16600381111561087157610870610da6565b5b146108b1576040517f08c379a00000000000000000000000000000000000000000000000000000000081526004016108a890611430565b60405180910390fd5b611c207f00000000000000000000000000000000000000000000000000000000000000006108df9190611100565b67ffffffffffffffff1642101561092b576040517f08c379a0000000000000000000000000000000000000000000000000000000008152600401610922906114c2565b60405180910390fd5b6001600260006101000a81548160ff0219169083600381111561095157610950610da6565b5b02179055507fb21fb52d5749b80f3182f8c6992236b5e5576681880914484d7f4c9b062e619e7f00000000000000000000000000000000000000000000000000000000000000007f00000000000000000000000000000000000000000000000000000000000000006040516109c79291906114e2565b60405180910390a1565b7f000000000000000000000000000000000000000000000000000000000000000081565b7f000000000000000000000000000000000000000000000000000000000000000081565b7f000000000000000000000000000000000000000000000000000000000000000081565b60018054610a4a9061116b565b80601f0160208091040260200160405190810160405280929190818152602001828054610a769061116b565b8015610ac35780601f10610a9857610100808354040283529160200191610ac3565b820191906000526020600020905b815481529060010190602001808311610aa657829003601f168201915b505050505081565b611c2081565b7f000000000000000000000000000000000000000000000000000000000000000073ffffffffffffffffffffffffffffffffffffffff163373ffffffffffffffffffffffffffffffffffffffff1614610b5f576040517f08c379a0000000000000000000000000000000000000000000000000000000008152600401610b56906113c4565b60405180910390fd5b60006003811115610b7357610b72610da6565b5b600260009054906101000a900460ff166003811115610b9557610b94610da6565b5b14610bd5576040517f08c379a0000000000000000000000000000000000000000000000000000000008152600401610bcc90611430565b60405180910390fd5b611c207f0000000000000000000000000000000000000000000000000000000000000000610c039190611100565b67ffffffffffffffff16421015610c4f576040517f08c379a0000000000000000000000000000000000000000000000000000000008152600401610c46906114c2565b60405180910390fd5b60028060006101000a81548160ff02191690836003811115610c7457610c73610da6565b5b02179055507fca15137148c4fd79778d6f6a3d6833d6bbc140f167d9eb76644af5763d93c2217f00000000000000000000000000000000000000000000000000000000000000007f00000000000000000000000000000000000000000000000000000000000000008484604051610cee9493929190611547565b60405180910390a15050565b600260005403610d36576040517f3ee5aeb500000000000000000000000000000000000000000000000000000000815260040160405180910390fd5b6002600081905550565b6001600081905550565b600073ffffffffffffffffffffffffffffffffffffffff82169050919050565b6000610d7582610d4a565b9050919050565b610d8581610d6a565b82525050565b6000602082019050610da06000830184610d7c565b92915050565b7f4e487b7100000000000000000000000000000000000000000000000000000000600052602160045260246000fd5b60048110610de657610de5610da6565b5b50565b6000819050610df782610dd5565b919050565b6000610e0782610de9565b9050919050565b610e1781610dfc565b82525050565b6000602082019050610e326000830184610e0e565b92915050565b6000819050919050565b610e4b81610e38565b82525050565b600081519050919050565b600082825260208201905092915050565b60005b83811015610e8b578082015181840152602081019050610e70565b60008484015250505050565b6000601f19601f8301169050919050565b6000610eb382610e51565b610ebd8185610e5c565b9350610ecd818560208601610e6d565b610ed681610e97565b840191505092915050565b6000819050919050565b610ef481610ee1565b82525050565b600067ffffffffffffffff82169050919050565b610f1781610efa565b82525050565b600061010082019050610f33600083018b610d7c565b610f40602083018a610d7c565b610f4d6040830189610e42565b8181036060830152610f5f8188610ea8565b9050610f6e6080830187610eeb565b610f7b60a0830186610d7c565b610f8860c0830185610f0e565b610f9560e0830184610f0e565b9998505050505050505050565b6000602082019050610fb76000830184610e42565b92915050565b6000602082019050610fd26000830184610eeb565b92915050565b6000602082019050610fed6000830184610f0e565b92915050565b6000602082019050818103600083015261100d8184610ea8565b905092915050565b600080fd5b600080fd5b600080fd5b600080fd5b600080fd5b60008083601f8401126110445761104361101f565b5b8235905067ffffffffffffffff81111561106157611060611024565b5b60208301915083600182028301111561107d5761107c611029565b5b9250929050565b6000806020838503121561109b5761109a611015565b5b600083013567ffffffffffffffff8111156110b9576110b861101a565b5b6110c58582860161102e565b92509250509250929050565b7f4e487b7100000000000000000000000000000000000000000000000000000000600052601160045260246000fd5b600061110b82610efa565b915061111683610efa565b9250828201905067ffffffffffffffff811115611136576111356110d1565b5b92915050565b7f4e487b7100000000000000000000000000000000000000000000000000000000600052602260045260246000fd5b6000600282049050600182168061118357607f821691505b6020821081036111965761119561113c565b5b50919050565b7f457363726f773a204f6e6c79204b4f4c2063616e20776974686472617720616660008201527f7465722072656c65617365000000000000000000000000000000000000000000602082015250565b60006111f8602b83610e5c565b91506112038261119c565b604082019050919050565b60006020820190508181036000830152611227816111eb565b9050919050565b7f457363726f773a204f6e6c7920666f756e6465722063616e207769746864726160008201527f7720616674657220726566756e64000000000000000000000000000000000000602082015250565b600061128a602e83610e5c565b91506112958261122e565b604082019050919050565b600060208201905081810360008301526112b98161127d565b9050919050565b7f457363726f773a204e6f7420696e206120776974686472617761626c6520737460008201527f6174650000000000000000000000000000000000000000000000000000000000602082015250565b600061131c602383610e5c565b9150611327826112c0565b604082019050919050565b6000602082019050818103600083015261134b8161130f565b9050919050565b7f457363726f773a2043616c6c6572206973206e6f74207468652076657269666960008201527f6572000000000000000000000000000000000000000000000000000000000000602082015250565b60006113ae602283610e5c565b91506113b982611352565b604082019050919050565b600060208201905081810360008301526113dd816113a1565b9050919050565b7f457363726f773a204e6f74206163746976650000000000000000000000000000600082015250565b600061141a601283610e5c565b9150611425826113e4565b602082019050919050565b600060208201905081810360008301526114498161140d565b9050919050565b7f457363726f773a20566572696669636174696f6e2064656c6179206e6f74206f60008201527f7665720000000000000000000000000000000000000000000000000000000000602082015250565b60006114ac602383610e5c565b91506114b782611450565b604082019050919050565b600060208201905081810360008301526114db8161149f565b9050919050565b60006040820190506114f76000830185610d7c565b6115046020830184610e42565b9392505050565b82818337600083830152505050565b60006115268385610e5c565b935061153383858461150b565b61153c83610e97565b840190509392505050565b600060608201905061155c6000830187610d7c565b6115696020830186610e42565b818103604083015261157c81848661151a565b90509594505050505056fea2646970667358221220254937146214cd29afced760726f4747f3c8f0ab6be1fe1a8293f1fc5cd770ec64736f6c63430008190033a264697066735822122048746fec6c2a2dca96f6b440458fdcfc615f4f4036ce9e30709ce97053e190b564736f6c63430008190033",
  "linkReferences": {},
  "deployedLinkReferences": {}
}